:100000000C9435000C945D000C945D000C945D0024
:100010000C945D000C945D000C947D010C945D00CB
:100020000C945D000C945D000C945D000C945D00DC
:100030000C945D000C945D000C945D000C945D00CC
:100040000C9494010C945D000C9404020C94DE0159
:100050000C945D000C945D000C945D000C945D00AC
:100060000C945D000C945D00770311241FBECFEF4C
:10007000D8E0DEBFCDBF11E0A0E0B1E0E2E6F7E0FE
:1000800002C005900D92A432B107D9F721E0A4E295
:10009000B1E001C01D92AA3CB207E1F710E0C5E350
:1000A000D0E004C02197FE010E94A403C433D1070D
:1000B000C9F70E9436020C94AF030C9400003FB7BE
:1000C000F8948091C6019091C701A091C801B091A8
:1000D000C90126B5A89B05C02F3F19F00196A11DA7
:1000E000B11D3FBFBA2FA92F982F8827820F911DCE
:1000F000A11DB11DBC01CD0143E0660F771F881F14
:10010000991F4A95D1F70895CF92DF92EF92FF920F
:100110000F931F93CF93DF936C017A018B01C0E0A3
:10012000D0E0CE15DF0589F0D8016D918D01D601A3
:10013000ED91FC910190F081E02DC6010995892B8C
:1001400011F47E0102C02196ECCFC701DF91CF915F
:100150001F910F91FF90EF90DF90CF900895FC01D9
:10016000918D828D981761F0828DDF01A80FB11DEE
:100170005D968C91928D9F5F9F73928F90E0089512
:100180008FEF9FEF0895FC01918D828D981731F0CC
:10019000828DE80FF11D858D90E008958FEF9FEF20
:1001A0000895FC01918D228D892F90E0805C9F4FF6
:1001B000821B91098F739927089584E291E00E9430
:1001C000D10021E0892B09F420E0822F0895FC0161
:1001D000848DDF01A80FB11DA35ABF4F2C91848DD0
:1001E00090E001968F739927848FA689B7892C9305
:1001F000A089B1898C9180648C93938D848D9813A0
:1002000006C00288F389E02D80818F7D8083089568
:10021000EF92FF920F931F93CF93DF93EC0181E056
:10022000888F9B8D8C8D981305C0E889F989808112
:1002300085FD24C0F62E0B8D10E00F5F1F4F0F734E
:100240001127E02E8C8DE8120CC00FB607FCFACFF8
:10025000E889F989808185FFF5CFCE010E94E7000A
:10026000F1CF8B8DFE01E80FF11DE35AFF4FF082B5
:100270000B8FEA89FB898081806207C0EE89FF8944
:100280006083E889F98980818064808381E090E0DF
:10029000DF91CF911F910F91FF90EF900895CF9331
:1002A000DF93EC01888D8823C9F0EA89FB8980817E
:1002B00085FD05C0A889B9898C9186FD0FC00FB650
:1002C00007FCF5CF808185FFF2CFA889B9898C9191
:1002D00085FFEDCFCE010E94E700E7CFDF91CF9100
:1002E000089580E090E0892B29F00E94DD008111C3
:1002F0000C94000008950E94AA031F920F920FB65B
:100300000F9211248F930FB6F894A89580916000F6
:10031000886180936000109260000FBE8F910F90F3
:100320000FBE0F901F9018951F920F920FB60F924D
:1003300011242F933F938F939F93AF93BF938091FB
:10034000C2019091C301A091C401B091C501309147
:10035000C10126E0230F2D3720F40296A11DB11D07
:1003600005C029E8230F0396A11DB11D2093C101EB
:100370008093C2019093C301A093C401B093C501BF
:100380008091C6019091C701A091C801B091C901A7
:100390000196A11DB11D8093C6019093C701A09342
:1003A000C801B093C901BF91AF919F918F913F91C7
:1003B0002F910F900FBE0F901F9018951F920F92C4
:1003C0000FB60F9211242F933F934F935F936F9328
:1003D0007F938F939F93AF93BF93EF93FF9384E2A9
:1003E00091E00E94E700FF91EF91BF91AF919F9143
:1003F0008F917F916F915F914F913F912F910F90CE
:100400000FBE0F901F9018951F920F920FB60F926C
:1004100011242F938F939F93EF93FF93E0913401D7
:10042000F09135018081E0913A01F0913B0182FD2C
:1004300012C0908180913D018F5F8F7320913E01AA
:10044000821751F0E0913D01F0E0EC5DFE4F958F99
:1004500080933D0101C08081FF91EF919F918F9129
:100460002F910F900FBE0F901F901895789484B520
:10047000826084BD84B5816084BD85B5826085BDA0
:1004800085B5816085BD80916E00816080936E002E
:100490001092810080918100826080938100809120
:1004A00081008160809381008091800081608093D1
:1004B00080008091B10084608093B1008091B00091
:1004C00081608093B00080917A00846080937A008C
:1004D00080917A00826080937A0080917A008E7F8A
:1004E00080937A0080917A00806880937A001092DD
:1004F000C100E0913401F091350182E08083E09108
:100500003001F09131011082E0913201F09133011C
:1005100087E6808310923C01E0913801F091390127
:1005200086E08083E0913601F0913701808180611F
:100530008083E0913601F09137018081886080836B
:10054000E0913601F0913701808180688083E091ED
:100550003601F091370180818F7D80830E945F009A
:100560004B015C0180EDC82E87E0D82EE12CF12CE8
:100570000E945F00DC01CB0188199909AA09BB0917
:10058000883E9340A105B10558F021E0C21AD10878
:10059000E108F10888EE880E83E0981EA11CB11CCA
:1005A000C114D104E104F10419F740E150E060E125
:1005B00071E084E291E00E94840042E050E061E258
:1005C00071E084E291E00E948400C8E1D9E2809168
:1005D000B10081FF02C084E001C080E09091B100D1
:1005E00090FD82609091B1009091B1009B7F9093BB
:1005F000B1009091B1009D7F9093B1009091B100B6
:100600009E7F9093B10090916400906490936400F9
:1006100090917A009F7790937A0090916400916016
:10062000909364009091640098609093640090911E
:100630006400906290936400909164009460909341
:1006400064009091640092609093640090916400C3
:100650009068909364000FB6F894A895C0936000DA
:100660000FBED09360009091600090649093600002
:1006700093B7917F93BFF89493B7916093BF7894A9
:10068000889593B79E7F93BF7894909164009E7FE6
:100690009093640090917A00906890937A0081FF23
:1006A00005C08091B10084608093B10080916400A6
:1006B0008F7B8093640080916400877F80936400C7
:1006C000809164008F7D80936400809164008B7FB3
:1006D00080936400809164008D7F8093640080919A
:1006E00064008F77809364000E94710170CFE4E210
:1006F000F1E01382128288EE93E0A0E0B0E0848300
:100700009583A683B78384E091E09183808385EC11
:1007100090E09587848784EC90E09787868780ECCB
:1007200090E0918B808B81EC90E0938B828B82ECBC
:1007300090E0958B848B86EC90E0978B868B118E66
:10074000128E138E148E0895EE0FFF1F0590F491F4
:10075000E02D099481E090E0F8940C94AF03F894B4
:02076000FFCFC9
:100762000000000008018400D100AF00C3004F0167
:1007720041726475696E6F2050726F204D696E69A7
:04078200000D0A005C
:00000001FF
